:100000000C946F000C9497000C9497000C9497003C
:100010000C9497000C9497000C9497000C94970004
:100020000C9497000C9497000C9497000C949700F4
:100030000C9497000C9497000C9497000C949700E4
:100040000C9426050C9497000C94F4040C94CE04A4
:100050000C9497000C9497000C9497000C949700C4
:100060000C9470050C949700084AD73B3BCE016E68
:1000700084BCBFFDC12F3D6C74319ABD56833DDAFF
:100080003D00C77F11BED9E4BB4C3E916BAAAABE0E
:10009000000000803F0000000000250028002B0029
:1000A000040404040404040402020202020203031E
:1000B0000303030301020408102040800102040826
:1000C00010200102040810200000000800020100B6
:1000D0000003040700000000000000008F06112448
:1000E0001FBECFEFD8E0DEBFCDBF11E0A0E0B1E092
:1000F000E6ECFAE102C005900D92AE33B107D9F7F4
:1001000022E0AEE3B1E001C01D92A13BB207E1F7EE
:1001100010E0CFE6D0E004C02197FE010E945B0D05
:10012000CE36D107C9F70E94D4060C94610D0C9409
:10013000000080918F0190919001891B990B089587
:1001400008950895AF92BF92CF92DF92EF92FF92FF
:100150000F931F93CF93DF936C017B018B01040FEF
:10016000151FEB015E01AE18BF08C017D10759F08B
:100170006991D601ED91FC910190F081E02DC601CD
:100180000995892B79F7C501DF91CF911F910F91C7
:10019000FF90EF90DF90CF90BF90AF900895FC015B
:1001A000538D448D252F30E0842F90E0821B930BDC
:1001B000541710F0CF96089501970895FC01918D82
:1001C000828D981761F0A28DAE0FBF2FB11D5D9685
:1001D0008C91928D9F5F9F73928F90E008958FEF27
:1001E0009FEF0895FC01918D828D981731F0828DDB
:1001F000E80FF11D858D90E008958FEF9FEF089532
:10020000FC01918D228D892F90E0805C9F4F821B95
:1002100091098F739927089581E092E00E9400016F
:1002200021E0892B09F420E0822F089580E090E0FE
:10023000892B29F00E940C0181110C940000089573
:10024000FC01A48DA80FB92FB11DA35ABF4F2C914B
:10025000848D90E001968F739927848FA689B78942
:100260002C93A089B1898C91837080648C93938D39
:10027000848D981306C00288F389E02D80818F7DDC
:1002800080830895EF92FF920F931F93CF93DF9394
:10029000EC0181E0888F9B8D8C8D98131AC0E889C2
:1002A000F989808185FF15C09FB7F894EE89FF8991
:1002B0006083E889F98980818370806480839FBF2F
:1002C00081E090E0DF91CF911F910F91FF90EF902F
:1002D0000895F62E0B8D10E00F5F1F4F0F7311273F
:1002E000E02E8C8D8E110CC00FB607FCFACFE8897A
:1002F000F989808185FFF5CFCE010E942001F1CFE1
:10030000EB8DEC0FFD2FF11DE35AFF4FF0829FB7ED
:10031000F8940B8FEA89FB8980818062CFCFCF93DD
:10032000DF93EC01888D8823B9F0AA89BB89E8891D
:10033000F9898C9185FD03C0808186FD0DC00FB6C3
:1003400007FCF7CF8C9185FFF2CF808185FFEDCF41
:10035000CE010E942001E9CFDF91CF91089590E076
:10036000FC01E853FF4F2491FC01EC54FF4F349102
:10037000FC01E056FF4FE491EE23C9F0222339F04F
:10038000233001F1A8F4213019F1223029F1F0E0F5
:10039000EE0FFF1FEA56FF4FA591B4918FB7F89467
:1003A000EC91611126C030953E233C938FBF089598
:1003B0002730A9F02830C9F0243049F78091800017
:1003C0008F7D03C0809180008F7780938000DFCF86
:1003D00084B58F7784BDDBCF84B58F7DFBCF8091D3
:1003E000B0008F778093B000D2CF8091B0008F7D26
:1003F000F9CF3E2BDACF3FB7F894809187019091E7
:100400008801A0918901B0918A0126B5A89B05C0F9
:100410002F3F19F00196A11DB11D3FBFBA2FA92F83
:10042000982F8827BC01CD01620F711D811D911D80
:1004300042E0660F771F881F991F4A95D1F70895EC
:100440008F929F92AF92BF92CF92DF92EF92FF92E4
:100450004B015C010E94FB016B017C010E94FB01CE
:100460006C197D098E099F09683E734081059105CD
:10047000A8F321E0821A9108A108B10888EEC80EFD
:1004800083E0D81EE11CF11C81149104A104B10485
:1004900029F7FF90EF90DF90CF90BF90AF909F90A3
:1004A0008F90089520915F01260F3327331F21324B
:1004B0003105ECF42091D701FC0190E080E024307C
:1004C00069F082E00895A0915F012191AC01415C47
:1004D0005E4FA40FB52FB11D2C930196861798F38C
:1004E00080915F01680F60935F0180E0089581E073
:1004F00008951092D70181E08093D6011092B10146
:1005000061E082E10E94AF0161E083E10E94AF01FE
:10051000E9EBF0E080818E7F808380818D7F808316
:1005200088E48093B80085E48093BC000895CF935D
:10053000DF9391E090933E018823B9F0C091B80019
:10054000D091BA008091BC008A7B8093BC0060E0AF
:1005500082E10E94AF0160E083E10E94AF010E944E
:100560007902D093BA00C093B800DF91CF9108957B
:100570008F929F92AF92BF92CF92DF92EF92FF92B3
:100580000F931F93CF93DF93D0910002D13208F0E5
:10059000D7C0182FC091FF010E94FB016B017C01A5
:1005A0008091D70181116BC082E08093D7011093B5
:1005B000D6018FEF8093D5011092D401D093D3014F
:1005C000AFEDB1E0E3EBF1E080E0D81391C0109221
:1005D000B2018091B201CC0FC82BC093B2018091BF
:1005E000B101813009F088C01092B1010E94FB0175
:1005F0006B017C018091B2018093BB008091D90195
:100600009091DA01A091DB01B091DC01892B8A2B5A
:100610008B2BA1F00E94FB010091D9011091DA010E
:100620002091DB013091DC016C197D098E099F0955
:10063000061717072807390708F442C08091BC0045
:1006400083FDD8CF85EC8093BC000E94FB016B0139
:100650007C018091D701823009F450C08091D5018E
:100660008F3F09F46FC08091D501803209F46CC0CE
:100670008091D501803309F469C084E026C080915F
:10068000D9019091DA01A091DB01B091DC01892BB5
:100690008A2B8B2B09F484CF0E94FB018090D90117
:1006A0009090DA01A090DB01B090DC016C197D091B
:1006B0008E099F0986169706A806B90608F070CF1E
:1006C0008091D8010E94970285E01092DE0110927D
:1006D00000021092DD01DF91CF911F910F91FF90E9
:1006E000EF90DF90CF90BF90AF909F908F90089544
:1006F0009D9191938F5F69CF85EEA5CF8091D901B0
:100700009091DA01A091DB01B091DC01892B8A2B59
:100710008B2B09F49ECF0E94FB010091D90110910F
:10072000DA012091DB013091DC016C197D098E0921
:100730009F09061717072807390708F08ACFC0CF87
:1007400081E0C3CF80E0C1CF82E0BFCF83E0BDCFE7
:100750000895E091900180918F01E81730F4F0E066
:10076000EF56FE4F808190E008958FEF9FEF089540
:100770009091900180918F012FEF3FEF981748F4EF
:10078000E92FF0E0EF56FE4F208130E09F5F90931D
:100790009001C9010895CF92DF92EF92FF920F93DB
:1007A0001F93CF93DF937C01CB018A012091DD0160
:1007B000222389F0EB016B01C40ED51ECC15DD059B
:1007C00069F06991D701ED91FC910190F081E02DE4
:1007D000C7010995F3CF642F0E945202C801DF912F
:1007E000CF911F910F91FF90EF90DF90CF900895E0
:1007F000CF93DF931F92CDB7DEB769832091DD01E0
:100800002223F9F020910002203258F021E030E05C
:10081000FC013383228390E080E00F90DF91CF9141
:1008200008958091DE01E82FF0E0E152FE4F9981BA
:1008300090838F5F8093DE018093000281E090E0DF
:10084000ECCF61E0CE0101960E945202F7CFCF9328
:10085000C62F9091B00221E02093DD019093FF011B
:100860001092DE0110920002682F8EE992E00E9441
:10087000F8036C2F8EE992E00E94F80381E0CF919B
:100880000C94B80290E080E00895FC0101900020F3
:10089000E9F73197AF01481B590BBC0181E092E0A9
:1008A0000C94A2008F929F92AF92BF920F931F93CE
:1008B000CF93DF93CDB7DEB7A1970FB6F894DEBF25
:1008C0000FBECDBF19A2423008F44AE08E010F5D81
:1008D0001F4F842E912CB12CA12CA50194010E94B4
:1008E000390DE62FB901CA01EA30F4F4E05DD80110
:1008F000EE938D01232B242B252B79F790E080E0BC
:10090000109719F0CD010E944504A1960FB6F894F6
:10091000DEBF0FBECDBFDF91CF911F910F91BF9072
:10092000AF909F908F900895E95CE1CF85ED809323
:10093000BC008091D9019091DA01A091DB01B091C6
:10094000DC010796A11DB11D23E0B695A7959795EB
:1009500087952A95D1F72091BC0024FD03C0109201
:10096000D70108954091D9015091DA016091DB01DE
:100970007091DC01452B462B472B69F30097A105AD
:10098000B10541F02AE22A95F1F700C00197A109CB
:10099000B109E1CF8091D8010C9497021F920F9278
:1009A0000FB60F9211242F933F934F935F936F9342
:1009B0007F938F939F93AF93BF93EF93FF9381E0C8
:1009C00092E00E942001FF91EF91BF91AF919F9122
:1009D0008F917F916F915F914F913F912F910F90E8
:1009E0000FBE0F901F9018951F920F920FB60F9287
:1009F00011242F938F939F93EF93FF93E091110214
:100A0000F09112028081E0911702F091180282FDAC
:100A10001BC0908180911A028F5F8F7320911B02FF
:100A2000821741F0E0911A02F0E0EF5FFD4F958FE1
:100A300080931A02FF91EF919F918F912F910F90C8
:100A40000FBE0F901F9018958081F4CF1F920F92C8
:100A50000FB60F9211242F933F938F939F93AF93D1
:100A6000BF938091830190918401A0918501B09101
:100A700086013091820123E0230F2D3758F501962E
:100A8000A11DB11D20938201809383019093840165
:100A9000A0938501B0938601809187019091880190
:100AA000A0918901B0918A010196A11DB11D809389
:100AB000870190938801A0938901B0938A01BF9127
:100AC000AF919F918F913F912F910F900FBE0F90FB
:100AD0001F90189526E8230F0296A11DB11DD2CFB5
:100AE0001F920F920FB60F9211242F933F934F93A3
:100AF0005F936F937F938F939F93AF93BF93EF9386
:100B0000FF938091B900887F803609F44AC0F0F5E0
:100B1000883209F4A7C018F5803109F49BC0B8F4F5
:100B2000882309F4F9C0883009F494C0FF91EF914B
:100B3000BF91AF919F918F917F916F915F914F91F5
:100B40003F912F910F900FBE0F901F9018958831F5
:100B500009F488C0803251F78093D50114C08034E5
:100B600009F49DC040F48033B9F38833F9F68093DB
:100B7000D50185ECB0C0803509F485C0883509F40D
:100B800096C0883499F60E949604D0CF883909F42B
:100B90008CC038F5883729F050F4883611F080374A
:100BA00029F683E08093D7011092810157C08838DD
:100BB00009F47BC0803919F0803809F0B7CF8091F3
:100BC0008101803208F071C0E091810181E08E0FD7
:100BD000809381018091BB00F0E0EF59FE4F80834C
:100BE0003DC0803B39F0E0F4803A09F479C0883A9E
:100BF00009F09CCF84E08093D7011092600110929D
:100C00005F01E0918D01F0918E01099580915F0166
:100C100081110FC081E080935F0110923F0109C0F4
:100C2000803C09F4A6CF883C09F4A3CF883B09F0A7
:100C30007DCFE091600181E08E0F80936001F0E054
:100C4000E15CFE4F80818093BB00909160018091B8
:100C50005F0129C08091B2018093BB0085EC809335
:100C6000BC0064CF9091D4018091D301981758F5BE
:100C7000E091D40181E08E0F8093D401F0E0ED5437
:100C8000FE4F8081E9CFE091D40181E08E0F809307
:100C9000D4018091BB00F0E0ED54FE4F8083909131
:100CA000D4018091D3019817C8F285E8D8CFE0919C
:100CB000D40181E08E0F8093D4018091BB00F0E0DD
:100CC000ED54FE4F80838091D60181115CCF81E08D
:100CD0008093B10184EA8093BC001092D70126CFA3
:100CE00085EC8093BC001092D70180918101803205
:100CF00030F4E0918101F0E0EF59FE4F10826091F5
:100D0000810170E0E0918B01F0918C0181E691E02E
:100D10000995109281010ACF1092D50134CFE1E0FC
:100D2000F2E01382128288EE93E0A0E0B0E08483C8
:100D30009583A683B78324E031E03183208325ECBB
:100D400030E03587248724EC30E03787268720EC95
:100D500030E0318B208B21EC30E0338B228B22EC86
:100D600030E0358B248B26EC30E0378B268B118ED0
:100D7000128E138E148EEEE9F2E0138212828483B7
:100D80009583A683B78386E191E091838083EAEA25
:100D9000F2E0128213821482158285E892E0918338
:100DA00080838EE186830895CF93DF93CDB7DEB73E
:100DB00060970FB6F894DEBF0FBECDBF789484B5B0
:100DC000826084BD84B5816084BD85B5826085BD47
:100DD00085B5816085BD80916E00816080936E00D5
:100DE00010928100809181008260809381008091C7
:100DF0008100816080938100809180008160809378
:100E000080008091B10084608093B1008091B00037
:100E100081608093B00080917A00846080937A0032
:100E200080917A00826080937A0080917A0081605C
:100E300080937A0080917A00806880937A00109283
:100E4000C100E0911102F091120282E08083E091F2
:100E50000D02F0910E021082E0910F02F09110024B
:100E60008FEC808310921902E0911502F091160226
:100E700086E08083E0911302F0911402808180610A
:100E80008083E0911302F091140280818860808356
:100E9000E0911302F0911402808180688083E091D8
:100EA0001302F091140280818F7D80831092900153
:100EB00010928F011092DE01109200020E947902BE
:100EC00080EA90E090938E0180938D0181EA90E01A
:100ED00090938C0180938B011092AC021092AD0222
:100EE0001092AE021092AF028091AA029091AB02D2
:100EF0008C7F9093AB028093AA0260E082E00E9414
:100F000027048091AA029091AB02837E8460909323
:100F1000AB028093AA0260E281E00E9427048091E4
:100F2000AA029091AB028F71907C8068926090933E
:100F3000AB028093AA0233243394CE01079698879C
:100F40008F8335E0232E6091AA0260FF0AC0637090
:100F500082E00E94270462E470E080E090E00E945A
:100F600020028091B0023092DD018093FF01109247
:100F7000DE011092000263E08EE992E00E94F80325
:100F800081E00E94B8021091B0020E94FB016B0147
:100F90007C018091D701811164C03092D7013092D9
:100FA000D6019FEF9093D5011092D4012092D301E6
:100FB0003092B2018091B201110F182B1093B2013F
:100FC0008091B101813009F04CC11092B1010E94B1
:100FD000FB016B017C018091B2018093BB00809189
:100FE000D9019091DA01A091DB01B091DC01892B4C
:100FF0008A2B8B2BA1F00E94FB010091D90110914B
:10100000DA012091DB013091DC016C197D098E0938
:101010009F09061717072807390708F443C080916E
:10102000BC0083FDD8CFA5ECA093BC000E94FB01BF
:101030006B017C018091D701813009F416C1809148
:10104000D401863008F033C18091D401E3EBF1E0A4
:10105000A1E9B1E090E0981751F121912D939F5FA4
:10106000FACF8091D9019091DA01A091DB01B09182
:10107000DC01892B8A2B8B2B09F48BCF0E94FB017F
:101080008090D9019090DA01A090DB01B090DC0152
:101090006C197D098E099F0986169706A806B90660
:1010A00008F077CF8091D8010E94970280E01092DB
:1010B000900180938F01863079F48E010F5F1F4F6E
:1010C0008EE992E00E94B803F80181938F018F812D
:1010D0009885E817F907A1F709811A8110270127D8
:1010E00010276B817C81762767277627ED80FE802D
:1010F000FE24EF24FE24C090AA02D090AB02C601C9
:1011000025E0969587952A95E1F787709927813094
:10111000910509F4CEC008F4CFC08230910509F4DE
:10112000D7C0039709F4D1C08D2D992787709927CF
:101130008130910509F4E0C008F4D5C082309105F2
:1011400009F4E3C0039709F4EBC0CD2CDD24C69469
:10115000C694C69497E0C922DD24A1E0CA16D10442
:1011600009F4F0C008F4E5C0E2E0CE16D10409F4B9
:10117000F2C0F3E0CF16D10409F4F8C0A301920144
:1011800069857A858B859C850E94D80A2091AC025E
:101190003091AD024091AE025091AF020E94590AC7
:1011A0006B017C0120E030E0A9010E94370B87FF32
:1011B0000AC02BED3FE049EC50E4C701B6010E94A4
:1011C000590A6B017C012BED3FE049EC50E4C7016B
:1011D000B6010E94B60C181654F42BED3FE049EC12
:1011E00050E4C701B6010E94580A6B017C0120E05F
:1011F00030E044E353E4C701B6010E94C30C2BED79
:101200003FE049E450E40E943C0B6B017C014B0140
:101210005C0184E291E00E944504A7019601C701A8
:10122000B6010E94340D882309F4A9C08FE291E031
:101230000E9445048BE391E00E94450468EE73E050
:1012400080E090E00E942002A0E0B0E0AB2B09F427
:101250007ACE0E940C01882309F475CE0E9400000A
:1012600072CEB5EEB093BC00E1CE8091D9019091E1
:10127000DA01A091DB01B091DC01892B8A2B8B2B49
:1012800009F4D8CE0E94FB010091D9011091DA0136
:101290002091DB013091DC016C197D098E099F09D9
:1012A000061717072807390708F0C4CEFBCE86E0DB
:1012B000CDCE719561957109072E000C880B990BA5
:1012C0000E94DF0B2B013C012FCF719561957109B5
:1012D000072E000C880B990B0E94DF0B69877A8719
:1012E0008B879C8721CFB701FF0C880B990B0E943D
:1012F000DF0B2B013C0129CF662777276E197F0969
:10130000072E000C880B990BF2CFB701FF0C880B4E
:10131000990B0E94DF0B69877A878B879C8715CF93
:10132000662777276E197F09072E000C880B990B0B
:10133000F0CFB801110F880B990B0E94DF0B2B0126
:101340003C011CCF66277727601B710B072E000C12
:10135000880B990BF2CFB801110F880B990B0E94E3
:10136000DF0B69877A878B879C8708CF662777276B
:10137000601B710B072E000C880B990BF0CFD70167
:10138000C601BF778D879E87AF87B88B2FEF3FEF62
:101390004FE75FE7BC01CD010E94340D81110FC002
:1013A0002FEF3FEF4FE75FE76D857E858F8598894B
:1013B0000E94370B18161CF483E391E039CF2FEF0E
:1013C0003FEF4FE75FE4C701B6010E94B60C181665
:1013D0001CF487E391E02CCF2FEF3FEF4FE75FEC5A
:1013E000C701B6010E94370B87FDF3CF20E030E044
:1013F000A901C701B6010E94370B87FF0BC06DE240
:1014000081E092E00E94420146015701B7FAB09490
:10141000B7F8B0942AE037ED43EA5BE3C501B401C5
:101420000E94590A4B015C010E94AE0B6B017C01CA
:101430000E94DD0B9B01AC01C501B4010E94580A5A
:101440004B015C014AE0C701B6010E9452046EE202
:1014500081E092E00E94420120E030E040E251E46D
:10146000C501B4010E94C30C4B015C010E94AE0B8C
:101470006B01F12CE12C4AE0C701B6010E94520435
:10148000C701B6010E94DD0B9B01AC01C501B4018F
:101490000E94580A20E030E040E251E40E94C30C70
:1014A0000E94AE0B90E080E04AE00E945204C2CE5F
:1014B0005058BB27AA270E94700A0C947C0C0E94EB
:1014C0006E0C38F00E94750C20F039F49F3F19F42F
:1014D00026F40C94440C0EF4E095E7FB0C943E0CBF
:1014E000E92F0E948D0C58F3BA176207730784071F
:1014F000950720F079F4A6F50C94AF0C0EF4E09566
:101500000B2EBA2FA02D0B01B90190010C01CA01BD
:10151000A0011124FF27591B99F0593F50F4503E68
:1015200068F11A16F040A22F232F342F4427585F5A
:10153000F3CF469537952795A795F0405395C9F772
:101540007EF41F16BA0B620B730B840BBAF091502A
:10155000A1F0FF0FBB1F661F771F881FC2F70EC0C9
:10156000BA0F621F731F841F48F48795779567959C
:10157000B795F7959E3F08F0B0CF9395880F08F088
:101580009927EE0F9795879508950E946E0C60F04D
:1015900080E891E009F49EEF0E94750C28F040E885
:1015A00051E071F45EEF0CC00C94440C0C94AF0C41
:1015B000E92FE0780E948D0C40F3092E052AB1F343
:1015C000261737074807590738F00E2E07F8E02589
:1015D00069F0E025E0640AC0EF6307F8009407FAB9
:1015E000DB01B9019D01DC01CA01AD01EF930E944D
:1015F000530B0E947C0C0E94080B5F91552339F01D
:101600002BED3FE049E450FD49EC0C94590A089554
:10161000DF93DD27B92FBF7740E85FE31616170683
:1016200048075B0718F4D92F0E94BB0C9F938F9338
:101630007F936F930E94300DE8E6F0E00E94470C24
:101640000E947C0C2F913F914F915F910E94D60C8C
:10165000DD2351F09058A2EA2AED3FE049EC5FE328
:10166000D0785D270E94700ADF910C947C0C0E9458
:101670001A0C08F481E008950E94500B0C947C0C25
:101680000E94750C58F00E946E0C40F029F45F3FE8
:1016900029F00C943E0C51110C94B00C0C94440C99
:1016A0000E948D0C68F39923B1F3552391F3951B98
:1016B000550BBB27AA2762177307840738F09F5F73
:1016C0005F4F220F331F441FAA1FA9F335D00E2EE0
:1016D0003AF0E0E832D091505040E695001CCAF74D
:1016E0002BD0FE2F29D0660F771F881FBB1F261710
:1016F00037074807AB07B0E809F0BB0B802DBF01E7
:10170000FF2793585F4F3AF09E3F510578F00C94B5
:101710003E0C0C94B00C5F3FE4F3983ED4F38695F6
:1017200077956795B795F7959F5FC9F7880F911DD6
:101730009695879597F90895E1E0660F771F881FC2
:10174000BB1F621773078407BA0720F0621B730B75
:10175000840BBA0BEE1F88F7E09508950E94950C54
:1017600088F09F5798F0B92F9927B751B0F0E1F062
:10177000660F771F881F991F1AF0BA95C9F714C012
:10178000B13091F00E94AF0CB1E008950C94AF0C11
:10179000672F782F8827B85F39F0B93FCCF386954B
:1017A00077956795B395D9F73EF4909580957095A8
:1017B00061957F4F8F4F9F4F0895E89409C097FB25
:1017C0003EF490958095709561957F4F8F4F9F4F18
:1017D0009923A9F0F92F96E9BB279395F69587955C
:1017E00077956795B795F111F8CFFAF4BB0F11F41F
:1017F00060FF1BC06F5F7F4F8F4F9F4F16C08823C6
:1018000011F096E911C0772321F09EE8872F762FFB
:1018100005C0662371F096E8862F70E060E02AF03C
:101820009A95660F771F881FDAF7880F9695879528
:1018300097F90895990F0008550FAA0BE0E8FEEFFD
:1018400016161706E807F907C0F012161306E40784
:10185000F50798F0621B730B840B950B39F40A267D
:1018600061F0232B242B252B21F408950A2609F45B
:10187000A140A6958FEF811D811D089597F99F675F
:1018800080E870E060E008959FEF80EC0895DF93BA
:10189000CF931F930F93FF92EF92DF927B018C0106
:1018A000689406C0DA2EEF010E94D60CFE01E8947F
:1018B000A5912591359145915591A6F3EF010E948F
:1018C000700AFE019701A801DA9469F7DF90EF90A2
:1018D000FF900F911F91CF91DF91089500240A94FA
:1018E0001616170618060906089500240A941216FB
:1018F0001306140605060895092E0394000C11F42E
:10190000882352F0BB0F40F4BF2B11F460FF04C0DA
:101910006F5F7F4F8F4F9F4F089557FD9058440F33
:10192000551F59F05F3F71F04795880F97FB991F3E
:1019300061F09F3F79F087950895121613061406FB
:10194000551FF2CF4695F1DF08C016161706180688
:10195000991FF1CF86957105610508940895E89463
:10196000BB2766277727CB0197F908950E941A0CA9
:1019700008F48FEF08959B01AC0160E070E080E80F
:101980009FE30C943C0B0E94D60C0C947C0C0E94A0
:101990006E0C38F00E94750C20F0952311F00C9419
:1019A0003E0C0C94440C11240C94B00C0E948D0C31
:1019B00070F3959FC1F3950F50E0551F629FF001A2
:1019C000729FBB27F00DB11D639FAA27F00DB11DBB
:1019D000AA1F649F6627B00DA11D661F829F222744
:1019E000B00DA11D621F739FB00DA11D621F839FCB
:1019F000A00D611D221F749F3327A00D611D231FA1
:101A0000849F600D211D822F762F6A2F11249F57EE
:101A100050409AF0F1F088234AF0EE0FFF1FBB1FF1
:101A2000661F771F881F91505040A9F79E3F5105B0
:101A300080F00C943E0C0C94B00C5F3FE4F3983EA5
:101A4000D4F3869577956795B795F795E7959F5F5A
:101A5000C1F7FE2B880F911D9695879597F90895EC
:101A60009B01AC010C94C30C0E941A0C880B990BBF
:101A70000895A1E21A2EAA1BBB1BFD010DC0AA1FCF
:101A8000BB1FEE1FFF1FA217B307E407F50720F0E7
:101A9000A21BB30BE40BF50B661F771F881F991F62
:101AA0001A9469F760957095809590959B01AC01AB
:101AB000BD01CF010895EE0FFF1F0590F491E02DB9
:061AC0000994F894FFCF29
:101AC600000000004201A200CF008F010001DE00ED
:101AD600F20000000000F803CB034204A8039900BB
:101AE600B803A90348656164696E673A2009006E08
:0E1AF600616E00696E66006F7666000D0A0074
:00000001FF
