:020000040000FA
:100000000C9458000C9480000C9480000C94800098
:100010000C9480000C9480000C9480000C94800060
:100020000C9480000C9480000C9480000C94800050
:100030000C9480000C9480000C9480000C94800040
:100040000C9483040C9480000C9451040C942B04A5
:100050000C9480000C9480000C9480000C94800020
:100060000C94CD040C9480000000000025002800B2
:100070002B00040404040404040402020202020229
:10008000030303030303010204081020408001025C
:1000900004081020010204081020000000080002DB
:1000A0000100000304070000000000000000EC0550
:1000B00011241FBECFEFD8E0DEBFCDBF11E0A0E01E
:1000C000B1E0E6E6F6E102C005900D92A634B10774
:1000D000D9F722E0A6E4B1E001C01D92AF3BB20720
:1000E000E1F710E0C8E5D0E004C02197FE010E94CE
:1000F0005308C735D107C9F70E9425060C94310B68
:100100000C94000008950895AF92BF92CF92DF92B1
:10011000EF92FF920F931F93CF93DF936C017B01BC
:100120008B01040F151FEB015E01AE18BF08C0174D
:10013000D10759F06991D601ED91FC910190F081C0
:10014000E02DC6010995892B79F7C501DF91CF9183
:100150001F910F91FF90EF90DF90CF90BF90AF90E5
:100160000895FC01538D448D252F30E0842F90E0BD
:10017000821B930B541710F0CF96089501970895A2
:10018000FC01918D828D981761F0A28DAE0FBF2F6B
:10019000B11D5D968C91928D9F5F9F73928F90E0C1
:1001A00008958FEF9FEF0895FC01918D828D981730
:1001B00031F0828DE80FF11D858D90E008958FEF6D
:1001C0009FEF0895FC01918D228D892F90E0805C36
:1001D0009F4F821B91098F739927089586E192E0C2
:1001E0000E94E20021E0892B09F420E0822F08958B
:1001F00080E090E0892B29F00E94EE0081110C94A0
:1002000000000895FC01A48DA80FB92FB11DA35AB9
:10021000BF4F2C91848D90E001968F739927848F26
:10022000A689B7892C93A089B1898C918370806449
:100230008C93938D848D981306C00288F389E02DEA
:1002400080818F7D80830895EF92FF920F931F939B
:10025000CF93DF93EC0181E0888F9B8D8C8D981379
:100260001AC0E889F989808185FF15C09FB7F89485
:10027000EE89FF896083E889F989808183708064D1
:1002800080839FBF81E090E0DF91CF911F910F911C
:10029000FF90EF900895F62E0B8D10E00F5F1F4F2B
:1002A0000F731127E02E8C8D8E110CC00FB607FC3A
:1002B000FACFE889F989808185FFF5CFCE010E94C8
:1002C0000201F1CFEB8DEC0FFD2FF11DE35AFF4F33
:1002D000F0829FB7F8940B8FEA89FB898081806256
:1002E000CFCFCF93DF93EC01888D8823B9F0AA8913
:1002F000BB89E889F9898C9185FD03C0808186FDE1
:100300000DC00FB607FCF7CF8C9185FFF2CF80812F
:1003100085FFEDCFCE010E940201E9CFDF91CF91A1
:10032000089590E0FC01E656FF4F2491FC01EA5746
:10033000FF4F3491FC01EE58FF4FE491EE23C9F0DA
:10034000222339F0233001F1A8F4213019F12230B1
:1003500029F1F0E0EE0FFF1FE859FF4FA591B4918E
:100360008FB7F894EC91611126C030953E233C93F1
:100370008FBF08952730A9F02830C9F0243049F7FD
:10038000809180008F7D03C0809180008F77809363
:100390008000DFCF84B58F7784BDDBCF84B58F7DC0
:1003A000FBCF8091B0008F778093B000D2CF809147
:1003B000B0008F7DF9CF3E2BDACF3FB7F894809114
:1003C0008F0190919001A0919101B091920126B579
:1003D000A89B05C02F3F19F00196A11DB11D3FBF7D
:1003E000BA2FA92F982F8827BC01CD01620F711D4C
:1003F000811D911D42E0660F771F881F991F4A9546
:10040000D1F7089520916701260F3327331F21323A
:100410003105ECF42091EC01FC0190E080E0243007
:1004200069F082E00895A09167012191AC01495BD8
:100430005E4FA40FB52FB11D2C930196861798F32C
:1004400080916701680F6093670180E0089581E003
:1004500008951092EC0181E08093EB011092C601A7
:1004600061E082E10E94910161E083E10E949101DB
:10047000E9EBF0E080818E7F808380818D7F8083B7
:1004800088E48093B80085E48093BC000895CF93FE
:10049000DF9391E0909346018823B9F0C091B800B2
:1004A000D091BA008091BC008A7B8093BC0060E050
:1004B00082E10E94910160E083E10E9491010E942B
:1004C0002902D093BA00C093B800DF91CF9108956C
:1004D0008F929F92AF92BF92CF92DF92EF92FF9254
:1004E0000F931F93CF93DF93D0911502D13208F071
:1004F000D7C0182FC09114020E94DD016B017C014E
:100500008091EC0181116BC082E08093EC0110932B
:10051000EB018FEF8093EA011092E901D093E8019B
:10052000A4EFB1E0E8ECF1E080E0D81391C01092C4
:10053000C7018091C701CC0FC82BC093C701809120
:10054000C601813009F088C01092C6010E94DD0109
:100550006B017C018091C7018093BB008091EE010B
:100560009091EF01A091F001B091F101892B8A2BBC
:100570008B2BA1F00E94DD010091EE011091EF01A3
:100580002091F0013091F1016C197D098E099F09CC
:10059000061717072807390708F442C08091BC00E6
:1005A00083FDD8CF85EC8093BC000E94DD016B01F8
:1005B0007C018091EC01823009F450C08091EA0105
:1005C0008F3F09F46FC08091EA01803209F46CC05A
:1005D0008091EA01803309F469C084E026C08091EB
:1005E000EE019091EF01A091F001B091F101892B02
:1005F0008A2B8B2B09F484CF0E94DD018090EE01C1
:100600009090EF01A090F001B090F1016C197D097C
:100610008E099F0986169706A806B90608F070CFBE
:100620008091ED010E94470285E01092F301109243
:1006300015021092F201DF91CF911F910F91FF905F
:10064000EF90DF90CF90BF90AF909F908F900895E4
:100650009D9191938F5F69CF85EEA5CF8091EE013B
:100660009091EF01A091F001B091F101892B8A2BBB
:100670008B2B09F49ECF0E94DD010091EE011091B9
:10068000EF012091F0013091F1016C197D098E0983
:100690009F09061717072807390708F08ACFC0CF28
:1006A00081E0C3CF80E0C1CF82E0BFCF83E0BDCF88
:1006B0000895E091980180919701E81730F4F0E0F7
:1006C000E756FE4F808190E008958FEF9FEF0895E9
:1006D00090919801809197012FEF3FEF981748F480
:1006E000E92FF0E0E756FE4F208130E09F5F9093C6
:1006F0009801C90108958091970190919801891BF3
:10070000990B0895CF92DF92EF92FF920F931F9370
:10071000CF93DF937C01CB018A012091F201222348
:1007200089F0EB016B01C40ED51ECC15DD0569F017
:100730006991D701ED91FC910190F081E02DC70105
:100740000995F3CF642F0E940202C801DF91CF9177
:100750001F910F91FF90EF90DF90CF900895CF936E
:10076000DF931F92CDB7DEB769832091F201222378
:10077000F9F020911502203258F021E030E0FC0120
:100780003383228390E080E00F90DF91CF91089532
:100790008091F301E82FF0E0EC50FE4F99819083B7
:1007A0008F5F8093F3018093150281E090E0ECCF9E
:1007B00061E0CE0101960E940202F7CF90E080E056
:1007C0000895009769F0FC0101900020E9F7319746
:1007D000AF01481B590BBC0186E192E00C948400E8
:1007E00090E080E0089585ED8093BC008091EE015B
:1007F0009091EF01A091F001B091F1010796A11D38
:10080000B11D23E0B695A795979587952A95D1F7C1
:100810002091BC0024FD03C01092EC01089540918A
:10082000EE015091EF016091F0017091F101452BC3
:10083000462B472B69F30097A105B10541F02AE249
:100840002A95F1F700C00197A109B109E1CF809184
:10085000ED010C9447021F920F920FB60F921124D4
:100860002F933F934F935F936F937F938F939F93B8
:10087000AF93BF93EF93FF9386E192E00E94020152
:10088000FF91EF91BF91AF919F918F917F916F9168
:100890005F914F913F912F910F900FBE0F901F903E
:1008A00018951F920F920FB60F9211242F938F93CA
:1008B0009F93EF93FF93E0912602F09127028081AE
:1008C000E0912C02F0912D0282FD1BC0908180915D
:1008D0002F028F5F8F7320913002821741F0E091D9
:1008E0002F02F0E0EA5EFD4F958F80932F02FF917B
:1008F000EF919F918F912F910F900FBE0F901F90AE
:1009000018958081F4CF1F920F920FB60F92112489
:100910002F933F938F939F93AF93BF9380918B01BE
:1009200090918C01A0918D01B0918E0130918A013E
:1009300023E0230F2D3758F50196A11DB11D2093FB
:100940008A0180938B0190938C01A0938D01B093C9
:100950008E0180918F0190919001A0919101B091B1
:1009600092010196A11DB11D80938F01909390017A
:10097000A0939101B0939201BF91AF919F918F91FC
:100980003F912F910F900FBE0F901F90189526E862
:10099000230F0296A11DB11DD2CF1F920F920FB649
:1009A0000F9211242F933F934F935F936F937F93F5
:1009B0008F939F93AF93BF93EF93FF938091B90071
:1009C000887F803609F44AC0F0F5883209F4A7C060
:1009D00018F5803109F49BC0B8F4882309F4F9C0F4
:1009E000883009F494C0FF91EF91BF91AF919F912E
:1009F0008F917F916F915F914F913F912F910F90C8
:100A00000FBE0F901F901895883109F488C080326E
:100A100051F78093EA0114C0803409F49DC040F47A
:100A20008033B9F38833F9F68093EA0185ECB0C0DE
:100A3000803509F485C0883509F496C0883499F664
:100A40000E94F303D0CF883909F48CC038F5883779
:100A500029F050F4883611F0803729F683E080932E
:100A6000EC011092890157C0883809F47BC08039A5
:100A700019F0803809F0B7CF80918901803208F0F1
:100A800071C0E091890181E08E0F8093890180918E
:100A9000BB00F0E0E759FE4F80833DC0803B39F05A
:100AA000E0F4803A09F479C0883A09F09CCF84E0F8
:100AB0008093EC011092680110926701E09195011A
:100AC000F091960109958091670181110FC081E035
:100AD000809367011092470109C0803C09F4A6CFBA
:100AE000883C09F4A3CF883B09F07DCFE0916801F1
:100AF00081E08E0F80936801F0E0E95BFE4F80811A
:100B00008093BB00909168018091670129C080911A
:100B1000C7018093BB0085EC8093BC0064CF9091AB
:100B2000E9018091E801981758F5E091E90181E029
:100B30008E0F8093E901F0E0E853FE4F8081E9CF0A
:100B4000E091E90181E08E0F8093E9018091BB0083
:100B5000F0E0E853FE4F80839091E9018091E80135
:100B60009817C8F285E8D8CFE091E90181E08E0FAF
:100B70008093E9018091BB00F0E0E853FE4F808351
:100B80008091EB0181115CCF81E08093C60184EA02
:100B90008093BC001092EC0126CF85EC8093BC00C2
:100BA0001092EC0180918901803230F4E09189014A
:100BB000F0E0E759FE4F10826091890170E0E0910A
:100BC0009301F091940189E691E0099510928901D1
:100BD0000ACF1092EA0134CFE6E1F2E013821282EA
:100BE00088EE93E0A0E0B0E084839583A683B7838A
:100BF00024E031E03183208325EC30E03587248701
:100C000024EC30E03787268720EC30E0318B208BD6
:100C100021EC30E0338B228B22EC30E0358B248BBF
:100C200026EC30E0378B268B118E128E138E148EAD
:100C3000E3EBF2E01382128284839583A683B78369
:100C400086E191E0918380830895CF93DF9300D074
:100C5000CDB7DEB7789484B5826084BD84B58160F9
:100C600084BD85B5826085BD85B5816085BD809177
:100C70006E00816080936E001092810080918100EF
:100C800082608093810080918100816080938100E7
:100C9000809180008160809380008091B1008460A9
:100CA0008093B1008091B00081608093B00080910A
:100CB0007A00846080937A0080917A0082608093C9
:100CC0007A0080917A00816080937A0080917A0026
:100CD000806880937A001092C100E0912602F09122
:100CE000270282E08083E0912202F09123021082A9
:100CF000E0912402F09125028FEC808310922E0265
:100D0000E0912A02F0912B0286E08083E091280294
:100D1000F0912902808180618083E0912802F09126
:100D20002902808188608083E0912802F091290265
:100D3000808180688083E0912802F091290280817F
:100D40008F7D808310929801109297011092F30189
:100D5000109215020E94290282E890E09093960179
:100D60008093950183E890E09093940180939301A0
:100D700081E08093F20188E6809314026BE683EBB6
:100D800092E00E94AF0360E083EB92E00E94AF0329
:100D900081E00E9468023324339409EB11E098E665
:100DA000292E3092F201209214021092F301109237
:100DB00015026BE383EB92E00E94AF0380E00E9498
:100DC00068020E94DD016B017C018091EC018111C0
:100DD00064C03092EC013092EB012FEF2093EA01D6
:100DE0001092E9013DE03093E8013092C701809113
:100DF000C701806D8093C7018091C601813009F0E1
:100E00002AC11092C6010E94DD016B017C01809114
:100E1000C7018093BB008091EE019091EF01A091FA
:100E2000F001B091F101892B8A2B8B2BA1F00E944C
:100E3000DD014090EE015090EF016090F001709064
:100E4000F1016C197D098E099F094616570668063F
:100E5000790608F443C08091BC0083FDD8CF85ECAF
:100E60008093BC000E94DD016B017C018091EC014C
:100E7000813009F4F4C08091E9018E3008F011C18D
:100E80008091E901A8ECB1E0E9E9F1E090E0981780
:100E900051F12D9121939F5FFACF8091EE019091B6
:100EA000EF01A091F001B091F101892B8A2B8B2BDE
:100EB00009F48BCF0E94DD014090EE015090EF01CC
:100EC0006090F0017090F1016C197D098E099F0905
:100ED000461657066806790608F077CF8091ED012F
:100EE0000E94470280E0109298018093970183EB63
:100EF00092E00E946803F82E83EB92E00E94680360
:100F0000A12C8A299F299093C5018093C40183EB6A
:100F100092E00E946803F82E83EB92E00E9468033F
:100F2000FA82198229813A81822B932B9093C301F3
:100F30008093C20183EB92E00E946803F82E83EB5A
:100F400092E00E946803812C88299F299093C10117
:100F50008093C00184E291E00E94E1038091C50189
:100F60008F938091C4018F938DE291E09F938F9333
:100F70001F930F930E94590889EB91E00E94E103AF
:100F800081E391E00E94E1038091C3018F938091FE
:100F9000C2018F938DE291E09F938F931F930F93E4
:100FA0000E94590889EB91E00E94E1038AE391E0F5
:100FB0000E94E1038091C1018F938091C0018F93C2
:100FC0008DE291E09F938F931F930F930E94590896
:100FD00089EB91E00E94E10342E050E063E471E0BC
:100FE00086E192E00E9484000E94DD012B013C0119
:100FF0000FB6F894DEBF0FBECDBF88EEC82E83E0DB
:10100000D82EE12CF12C0E94DD01641975098609A6
:101010009709683E734081059105A8F391E0C91ACC
:10102000D108E108F10828EE420E23E0521E611CAF
:10103000711CC114D104E104F10429F780E090E0AF
:10104000892B09F4AECE0E94EE00882309F4A7CEC6
:101050000E940000A4CE95EE9093BC0003CF809137
:10106000EE019091EF01A091F001B091F101892B77
:101070008A2B8B2B09F4FACE0E94DD014090EE0101
:101080005090EF016090F0017090F1016C197D09B2
:101090008E099F09461657066806790608F0E6CEBF
:1010A0001DCF8EE0EFCEEE0FFF1F0590F491E02DE7
:1010B0000994AEE0B0E0EFE5F8E00C94080B0D8980
:1010C0001E8986E08C831A8309838FEF9FE79E83B6
:1010D0008D83AE01475E5F4F6F89788DCE0101969B
:1010E0000E947C082F813885020F131FF80110829F
:1010F0002E96E4E00C94240BABE0B0E0E2E8F8E0DC
:101100000C94FA0A7C013B018A01FC0117821682C9
:10111000838181FFC8C1CE0101965C01F7019381F3
:10112000F30193FD859193FF81913F01882309F499
:1011300053C1853239F493FD859193FF81913F012D
:10114000853229F4B70190E00E946C0AE7CF912C18
:10115000212C312CFFE1F31538F08B3211F190F492
:10116000803209F1833229F137FC3CC020ED280F91
:101170002A3050F536FE20C08AE0989E200D1124BA
:10118000922E06C08D3291F0803371F7689430F85A
:10119000F30193FD859193FF81913F018111DACF96
:1011A00021C0689431F8689432F8F2CF689433F82B
:1011B000EFCF689434F8ECCFEAE02E9E200D112496
:1011C000222E689435F8E4CF8E3229F436FC04C11F
:1011D000689436F8DDCF8C3619F4689437F8D8CF98
:1011E0008836B1F2982F9F7D95549330E0F0833686
:1011F000A1F18337C1F1833509F063C02801F2E022
:101200004F0E511CF801C080D180692D70E036FC72
:1012100002C06FEF7FEFC6010E94560A4C0168942E
:1012200037F882010AC00C5F1F4FFFE3F98388245F
:101230008394912C6501E89437F833FE2DC0522C2D
:101240008114910471F5552009F468CFB70180E24B
:1012500090E00E946C0A5A94F6CFF801808189834D
:101260000E5F1F4FE4CF2801F2E04F0E511CF80132
:10127000C080D180692D70E036FC02C06FEF7FEF37
:10128000C6010E94610A4C018201D5CFB70180E2FC
:1012900090E00E946C0A2A942814190409F0B0F70F
:1012A000CECFF60137FC859137FE81916F01B701F2
:1012B00090E00E946C0A51105A94F1E08F1A910844
:1012C000BFCF843619F0893609F077C0F80137FEB0
:1012D0006BC060817181828193810C5F1F4FF32D00
:1012E000FF763F2E97FF09C0909580957095619588
:1012F0007F4F8F4F9F4F689437F82AE030E0A50169
:101300000E949C0AC82ECA188C2C432C36FE0CC096
:10131000E89440F8C91440F434FE05C032FC03C020
:10132000F32DFE7E4F2E892C44FE95C0FE01EC0D60
:10133000F11D8081803309F087C0242D297E422E43
:10134000842D8870582E43FC95C040FE8FC09C2C85
:10135000821418F42C0C922C981844FE91C0B701FA
:1013600080E390E00E946C0A42FE09C088E790E0AA
:1013700041FE02C088E590E0B7010E946C0AC914E2
:1013800008F48AC0CA94D12C9FEFC91AD90ACA0C92
:10139000DB1CF60182916F01B70190E00E946C0A9C
:1013A000AC14BD04B1F74FCF60817181072E000CE2
:1013B000880B990B0E5F1F4F92CFD32CE894D4F873
:1013C0002AE030E0853739F1232D297FD22E8F3660
:1013D00001F148F48835A9F0F701868197812B96B1
:1013E000E2E10C94160B803749F08837A9F7D4FE58
:1013F00002C06894D2F820E130E00DC06894D4F8BF
:10140000F6CF34FE03C0822F8660D82E20E132E072
:1014100002C028E030E0F801D7FE0FC06081718182
:10142000828193810C5F1F4FA5010E949C0AC82EE8
:10143000CA183D2CE89437F867CF6081718190E03D
:1014400080E00E5F1F4FF0CF42FC02C0839478CF44
:101450008394839475CF842D867809F471CFF6CF69
:10146000B70180E290E00E946C0A83948214C0F37A
:10147000512C73CF522C5818821408F46ECFF8CF29
:10148000842D867809F47BCF8BE241FE80E247FC15
:101490008DE2B70190E071CFB70180E390E00E9448
:1014A0006C0A9A946CCF8FEF9FEF99CFFC01059057
:1014B000615070400110D8F7809590958E0F9F1F56
:1014C0000895FC016150704001900110D8F780959B
:1014D00090958E0F9F1F08950F931F93CF93DF93C7
:1014E000182F092FEB018B8181FD09C01FEF0FEF32
:1014F000812F902FDF91CF911F910F91089582FF3F
:1015000014C02E813F818C819D81281739073CF4BE
:10151000E881F981CF0101969983888310838E81B8
:101520009F8101969F838E83E3CFE885F985812F84
:101530000995892BA1F3DACFFA01AA27283051F1B6
:10154000203181F1E8946F936E7F6E5F7F4F8F4FF4
:101550009F4FAF4FB1E03ED0B4E03CD0670F781F53
:10156000891F9A1FA11D680F791F8A1F911DA11D38
:101570006A0F711D811D911DA11D20D009F4689471
:101580003F912AE0269F11243019305D3193DEF619
:10159000CF010895462F4770405D4193B3E00FD0CF
:1015A000C9F7F6CF462F4F70405D4A3318F0495DBA
:1015B00031FD4052419302D0A9F7EACFB4E0A6959D
:1015C0009795879577956795BA95C9F700976105BF
:1015D000710508959B01AC010A2E06945795479515
:1015E00037952795BA95C9F7620F731F841F951F0A
:1015F000A01D08952F923F924F925F926F927F921B
:101600008F929F92AF92BF92CF92DF92EF92FF9212
:101610000F931F93CF93DF93CDB7DEB7CA1BDB0BBE
:101620000FB6F894DEBF0FBECDBF09942A88398863
:1016300048885F846E847D848C849B84AA84B9846A
:10164000C884DF80EE80FD800C811B81AA81B98176
:10165000CE0FD11D0FB6F894DEBF0FBECDBFED018A
:101660000895F894FFCF0000000024018400B10029
:101670007101E200C000D40000000000AF0382034B
:10168000DE0358037B0368035903207C206758203E
:101690003D200025366400207C206759203D200035
:0C16A000207C20675A203D20000D0A002D
:107E0000112484B714BE81FFF0D085E080938100F7
:107E100082E08093C00088E18093C10086E0809377
:107E2000C20080E18093C4008EE0C9D0259A86E02C
:107E300020E33CEF91E0309385002093840096BBD3
:107E4000B09BFECF1D9AA8958150A9F7CC24DD24C4
:107E500088248394B5E0AB2EA1E19A2EF3E0BF2EE7
:107E6000A2D0813461F49FD0082FAFD0023811F036
:107E7000013811F484E001C083E08DD089C08234E0
:107E800011F484E103C0853419F485E0A6D080C0E4
:107E9000853579F488D0E82EFF2485D0082F10E0AE
:107EA000102F00270E291F29000F111F8ED06801E7
:107EB0006FC0863521F484E090D080E0DECF843638
:107EC00009F040C070D06FD0082F6DD080E0C81688
:107ED00080E7D80618F4F601B7BEE895C0E0D1E017
:107EE00062D089930C17E1F7F0E0CF16F0E7DF06D8
:107EF00018F0F601B7BEE89568D007B600FCFDCFD4
:107F0000A601A0E0B1E02C9130E011968C91119780
:107F100090E0982F8827822B932B1296FA010C0160
:107F200087BEE89511244E5F5F4FF1E0A038BF0790
:107F300051F7F601A7BEE89507B600FCFDCF97BE46
:107F4000E89526C08437B1F42ED02DD0F82E2BD052
:107F50003CD0F601EF2C8F010F5F1F4F84911BD097
:107F6000EA94F801C1F70894C11CD11CFA94CF0C13
:107F7000D11C0EC0853739F428D08EE10CD085E9AC
:107F80000AD08FE07ACF813511F488E018D01DD067
:107F900080E101D065CF982F8091C00085FFFCCF94
:107FA0009093C60008958091C00087FFFCCF809118
:107FB000C00084FD01C0A8958091C6000895E0E648
:107FC000F0E098E1908380830895EDDF803219F02E
:107FD00088E0F5DFFFCF84E1DECF1F93182FE3DFCA
:107FE0001150E9F7F2DF1F91089580E0E8DFEE27F6
:047FF000FF270994CA
:027FFE00040479
:00000001FF
